{
  "_format": "hh-sol-artifact-1",
  "contractName": "CreateTokenFactory",
  "sourceName": "contracts/CreateTokenFactory.sol",
  "abi": [
    {
      "anonymous": false,
      "inputs": [
        {
          "indexed": false,
          "internalType": "address",
          "name": "tokenAddrerss",
          "type": "address"
        }
      ],
      "name": "TokenDeployed",
      "type": "event"
    },
    {
      "inputs": [
        {
          "internalType": "string",
          "name": "name_",
          "type": "string"
        },
        {
          "internalType": "string",
          "name": "symbol_",
          "type": "string"
        },
        {
          "internalType": "uint256",
          "name": "supply_",
          "type": "uint256"
        }
      ],
      "name": "createToken",
      "outputs": [
        {
          "internalType": "address",
          "name": "tokenAddrerss",
          "type": "address"
        }
      ],
      "stateMutability": "nonpayable",
      "type": "function"
    },
    {
      "inputs": [
        {
          "internalType": "address",
          "name": "user",
          "type": "address"
        }
      ],
      "name": "getUserNewTokens",
      "outputs": [
        {
          "internalType": "address",
          "name": "",
          "type": "address"
        }
      ],
      "stateMutability": "view",
      "type": "function"
    },
    {
      "inputs": [],
      "name": "tokenCount",
      "outputs": [
        {
          "internalType": "uint256",
          "name": "",
          "type": "uint256"
        }
      ],
      "stateMutability": "view",
      "type": "function"
    },
    {
      "inputs": [
        {
          "internalType": "address",
          "name": "",
          "type": "address"
        },
        {
          "internalType": "uint256",
          "name": "",
          "type": "uint256"
        }
      ],
      "name": "userTokens",
      "outputs": [
        {
          "internalType": "address",
          "name": "",
          "type": "address"
        }
      ],
      "stateMutability": "view",
      "type": "function"
    }
  ],
  "bytecode": "0x608060405234801561001057600080fd5b50611979806100206000396000f3fe60806040523480156200001157600080fd5b5060043610620000525760003560e01c80632b386a4f14620000575780635b06053014620000985780639f181b5e14620000af578063f9f411d814620000c8575b600080fd5b6200006e620000683660046200041d565b620000df565b60405173ffffffffffffffffffffffffffffffffffffffff90911681526020015b60405180910390f35b6200006e620000a936600462000524565b6200014f565b620000b960015481565b6040519081526020016200008f565b6200006e620000d936600462000598565b6200039f565b73ffffffffffffffffffffffffffffffffffffffff8116600090815260208190526040812080546200011490600190620005f4565b8154811062000127576200012762000610565b60009182526020909120015473ffffffffffffffffffffffffffffffffffffffff1692915050565b6000808484846040516200016390620003e5565b6200017193929190620006a5565b604051809103906000f0801580156200018e573d6000803e3d6000fd5b50905073ffffffffffffffffffffffffffffffffffffffff811663a9059cbb33620001c286670de0b6b3a7640000620006df565b6040517fffffffff0000000000000000000000000000000000000000000000000000000060e085901b16815273ffffffffffffffffffffffffffffffffffffffff909216600483015260248201526044016020604051808303816000875af115801562000233573d6000803e3d6000fd5b505050506040513d601f19601f82011682018060405250810190620002599190620006f9565b506040517ff2fde38b00000000000000000000000000000000000000000000000000000000815233600482015273ffffffffffffffffffffffffffffffffffffffff82169063f2fde38b90602401600060405180830381600087803b158015620002c257600080fd5b505af1158015620002d7573d6000803e3d6000fd5b505033600090815260208181526040822080546001808201835591845291832090910180547fffffffffffffffffffffffff00000000000000000000000000000000000000001673ffffffffffffffffffffffffffffffffffffffff871617905580549350915062000349836200071d565b909155505060405173ffffffffffffffffffffffffffffffffffffffff821681527f91d24864a084ab70b268a1f865e757ca12006cf298d763b6be697302ef86498c9060200160405180910390a1949350505050565b60006020528160005260406000208181548110620003bc57600080fd5b60009182526020909120015473ffffffffffffffffffffffffffffffffffffffff169150829050565b6111eb806200075983390190565b803573ffffffffffffffffffffffffffffffffffffffff811681146200041857600080fd5b919050565b6000602082840312156200043057600080fd5b6200043b82620003f3565b9392505050565b7f4e487b7100000000000000000000000000000000000000000000000000000000600052604160045260246000fd5b600082601f8301126200048357600080fd5b813567ffffffffffffffff80821115620004a157620004a162000442565b604051601f83017fffffffffffffffffffffffffffffffffffffffffffffffffffffffffffffffe0908116603f01168101908282118183101715620004ea57620004ea62000442565b816040528381528660208588010111156200050457600080fd5b836020870160208301376000602085830101528094505050505092915050565b6000806000606084860312156200053a57600080fd5b833567ffffffffffffffff808211156200055357600080fd5b620005618783880162000471565b945060208601359150808211156200057857600080fd5b50620005878682870162000471565b925050604084013590509250925092565b60008060408385031215620005ac57600080fd5b620005b783620003f3565b946020939093013593505050565b7f4e487b7100000000000000000000000000000000000000000000000000000000600052601160045260246000fd5b818103818111156200060a576200060a620005c5565b92915050565b7f4e487b7100000000000000000000000000000000000000000000000000000000600052603260045260246000fd5b6000815180845260005b81811015620006675760208185018101518683018201520162000649565b5060006020828601015260207fffffffffffffffffffffffffffffffffffffffffffffffffffffffffffffffe0601f83011685010191505092915050565b606081526000620006ba60608301866200063f565b8281036020840152620006ce81866200063f565b915050826040830152949350505050565b80820281158282048414176200060a576200060a620005c5565b6000602082840312156200070c57600080fd5b815180151581146200043b57600080fd5b60007fffffffffffffffffffffffffffffffffffffffffffffffffffffffffffffffff8203620007515762000751620005c5565b506001019056fe60806040523480156200001157600080fd5b50604051620011eb380380620011eb83398101604081905262000034916200027e565b828260036200004483826200037f565b5060046200005382826200037f565b505050620000706200006a6200009860201b60201c565b6200009c565b6200008f336200008983670de0b6b3a764000062000461565b620000ee565b50505062000497565b3390565b600580546001600160a01b038381166001600160a01b0319831681179093556040519116919082907f8be0079c531659141344cd1fd0a4f28419497f9722a3daafe3b4186f6b6457e090600090a35050565b6001600160a01b038216620001495760405162461bcd60e51b815260206004820152601f60248201527f45524332303a206d696e7420746f20746865207a65726f206164647265737300604482015260640160405180910390fd5b80600260008282546200015d919062000481565b90915550506001600160a01b038216600081815260208181526040808320805486019055518481527fddf252ad1be2c89b69c2b068fc378daa952ba7f163c4a11628f55a4df523b3ef910160405180910390a35050565b505050565b634e487b7160e01b600052604160045260246000fd5b600082601f830112620001e157600080fd5b81516001600160401b0380821115620001fe57620001fe620001b9565b604051601f8301601f19908116603f01168101908282118183101715620002295762000229620001b9565b816040528381526020925086838588010111156200024657600080fd5b600091505b838210156200026a57858201830151818301840152908201906200024b565b600093810190920192909252949350505050565b6000806000606084860312156200029457600080fd5b83516001600160401b0380821115620002ac57600080fd5b620002ba87838801620001cf565b94506020860151915080821115620002d157600080fd5b50620002e086828701620001cf565b925050604084015190509250925092565b600181811c908216806200030657607f821691505b6020821081036200032757634e487b7160e01b600052602260045260246000fd5b50919050565b601f821115620001b457600081815260208120601f850160051c81016020861015620003565750805b601f850160051c820191505b81811015620003775782815560010162000362565b505050505050565b81516001600160401b038111156200039b576200039b620001b9565b620003b381620003ac8454620002f1565b846200032d565b602080601f831160018114620003eb5760008415620003d25750858301515b600019600386901b1c1916600185901b17855562000377565b600085815260208120601f198616915b828110156200041c57888601518255948401946001909101908401620003fb565b50858210156200043b5787850151600019600388901b60f8161c191681555b5050505050600190811b01905550565b634e487b7160e01b600052601160045260246000fd5b80820281158282048414176200047b576200047b6200044b565b92915050565b808201808211156200047b576200047b6200044b565b610d4480620004a76000396000f3fe608060405234801561001057600080fd5b50600436106100ea5760003560e01c8063715018a61161008c578063a457c2d711610066578063a457c2d7146101e7578063a9059cbb146101fa578063dd62ed3e1461020d578063f2fde38b1461025357600080fd5b8063715018a6146101ad5780638da5cb5b146101b757806395d89b41146101df57600080fd5b806323b872dd116100c857806323b872dd14610142578063313ce56714610155578063395093511461016457806370a082311461017757600080fd5b806306fdde03146100ef578063095ea7b31461010d57806318160ddd14610130575b600080fd5b6100f7610266565b6040516101049190610b31565b60405180910390f35b61012061011b366004610bc6565b6102f8565b6040519015158152602001610104565b6002545b604051908152602001610104565b610120610150366004610bf0565b610312565b60405160128152602001610104565b610120610172366004610bc6565b610336565b610134610185366004610c2c565b73ffffffffffffffffffffffffffffffffffffffff1660009081526020819052604090205490565b6101b5610382565b005b60055460405173ffffffffffffffffffffffffffffffffffffffff9091168152602001610104565b6100f7610396565b6101206101f5366004610bc6565b6103a5565b610120610208366004610bc6565b61047b565b61013461021b366004610c4e565b73ffffffffffffffffffffffffffffffffffffffff918216600090815260016020908152604080832093909416825291909152205490565b6101b5610261366004610c2c565b610489565b60606003805461027590610c81565b80601f01602080910402602001604051908101604052809291908181526020018280546102a190610c81565b80156102ee5780601f106102c3576101008083540402835291602001916102ee565b820191906000526020600020905b8154815290600101906020018083116102d157829003601f168201915b5050505050905090565b600033610306818585610540565b60019150505b92915050565b6000336103208582856106f3565b61032b8585856107ca565b506001949350505050565b33600081815260016020908152604080832073ffffffffffffffffffffffffffffffffffffffff87168452909152812054909190610306908290869061037d908790610cd4565b610540565b61038a610a39565b6103946000610aba565b565b60606004805461027590610c81565b33600081815260016020908152604080832073ffffffffffffffffffffffffffffffffffffffff871684529091528120549091908381101561046e576040517f08c379a000000000000000000000000000000000000000000000000000000000815260206004820152602560248201527f45524332303a2064656372656173656420616c6c6f77616e63652062656c6f7760448201527f207a65726f00000000000000000000000000000000000000000000000000000060648201526084015b60405180910390fd5b61032b8286868403610540565b6000336103068185856107ca565b610491610a39565b73ffffffffffffffffffffffffffffffffffffffff8116610534576040517f08c379a000000000000000000000000000000000000000000000000000000000815260206004820152602660248201527f4f776e61626c653a206e6577206f776e657220697320746865207a65726f206160448201527f64647265737300000000000000000000000000000000000000000000000000006064820152608401610465565b61053d81610aba565b50565b73ffffffffffffffffffffffffffffffffffffffff83166105e2576040517f08c379a0000000000000000000000000000000000000000000000000000000008152602060048201526024808201527f45524332303a20617070726f76652066726f6d20746865207a65726f2061646460448201527f72657373000000000000000000000000000000000000000000000000000000006064820152608401610465565b73ffffffffffffffffffffffffffffffffffffffff8216610685576040517f08c379a000000000000000000000000000000000000000000000000000000000815260206004820152602260248201527f45524332303a20617070726f766520746f20746865207a65726f20616464726560448201527f73730000000000000000000000000000000000000000000000000000000000006064820152608401610465565b73ffffffffffffffffffffffffffffffffffffffff83811660008181526001602090815260408083209487168084529482529182902085905590518481527f8c5be1e5ebec7d5bd14f71427d1e84f3dd0314c0f7b2291e5b200ac8c7c3b925910160405180910390a3505050565b73ffffffffffffffffffffffffffffffffffffffff8381166000908152600160209081526040808320938616835292905220547fffffffffffffffffffffffffffffffffffffffffffffffffffffffffffffffff81146107c457818110156107b7576040517f08c379a000000000000000000000000000000000000000000000000000000000815260206004820152601d60248201527f45524332303a20696e73756666696369656e7420616c6c6f77616e63650000006044820152606401610465565b6107c48484848403610540565b50505050565b73ffffffffffffffffffffffffffffffffffffffff831661086d576040517f08c379a000000000000000000000000000000000000000000000000000000000815260206004820152602560248201527f45524332303a207472616e736665722066726f6d20746865207a65726f20616460448201527f64726573730000000000000000000000000000000000000000000000000000006064820152608401610465565b73ffffffffffffffffffffffffffffffffffffffff8216610910576040517f08c379a000000000000000000000000000000000000000000000000000000000815260206004820152602360248201527f45524332303a207472616e7366657220746f20746865207a65726f206164647260448201527f65737300000000000000000000000000000000000000000000000000000000006064820152608401610465565b73ffffffffffffffffffffffffffffffffffffffff8316600090815260208190526040902054818110156109c6576040517f08c379a000000000000000000000000000000000000000000000000000000000815260206004820152602660248201527f45524332303a207472616e7366657220616d6f756e742065786365656473206260448201527f616c616e636500000000000000000000000000000000000000000000000000006064820152608401610465565b73ffffffffffffffffffffffffffffffffffffffff848116600081815260208181526040808320878703905593871680835291849020805487019055925185815290927fddf252ad1be2c89b69c2b068fc378daa952ba7f163c4a11628f55a4df523b3ef910160405180910390a36107c4565b60055473ffffffffffffffffffffffffffffffffffffffff163314610394576040517f08c379a000000000000000000000000000000000000000000000000000000000815260206004820181905260248201527f4f776e61626c653a2063616c6c6572206973206e6f7420746865206f776e65726044820152606401610465565b6005805473ffffffffffffffffffffffffffffffffffffffff8381167fffffffffffffffffffffffff0000000000000000000000000000000000000000831681179093556040519116919082907f8be0079c531659141344cd1fd0a4f28419497f9722a3daafe3b4186f6b6457e090600090a35050565b600060208083528351808285015260005b81811015610b5e57858101830151858201604001528201610b42565b5060006040828601015260407fffffffffffffffffffffffffffffffffffffffffffffffffffffffffffffffe0601f8301168501019250505092915050565b803573ffffffffffffffffffffffffffffffffffffffff81168114610bc157600080fd5b919050565b60008060408385031215610bd957600080fd5b610be283610b9d565b946020939093013593505050565b600080600060608486031215610c0557600080fd5b610c0e84610b9d565b9250610c1c60208501610b9d565b9150604084013590509250925092565b600060208284031215610c3e57600080fd5b610c4782610b9d565b9392505050565b60008060408385031215610c6157600080fd5b610c6a83610b9d565b9150610c7860208401610b9d565b90509250929050565b600181811c90821680610c9557607f821691505b602082108103610cce577f4e487b7100000000000000000000000000000000000000000000000000000000600052602260045260246000fd5b50919050565b8082018082111561030c577f4e487b7100000000000000000000000000000000000000000000000000000000600052601160045260246000fdfea2646970667358221220e75b35f126fc12f9eff5c0b95d1df2185ae83159dbb25c1c261e4fac2de2c98664736f6c63430008120033a26469706673582212207d543ef3cd7e61f0b980b6ef613efdeb612bc974d7ed0b519f5d1301043db37764736f6c63430008120033",
  "linkReferences": {},
  "deployedLinkReferences": {}
}