{
  "_format": "hh-sol-artifact-1",
  "contractName": "MultiSend",
  "sourceName": "contracts/MultiSend.sol",
  "abi": [
    {
      "anonymous": false,
      "inputs": [
        {
          "indexed": true,
          "internalType": "address",
          "name": "_from",
          "type": "address"
        },
        {
          "indexed": true,
          "internalType": "address",
          "name": "_to",
          "type": "address"
        },
        {
          "indexed": false,
          "internalType": "uint256",
          "name": "_amount",
          "type": "uint256"
        }
      ],
      "name": "Call",
      "type": "event"
    },
    {
      "anonymous": false,
      "inputs": [
        {
          "indexed": true,
          "internalType": "address",
          "name": "previousOwner",
          "type": "address"
        },
        {
          "indexed": true,
          "internalType": "address",
          "name": "newOwner",
          "type": "address"
        }
      ],
      "name": "OwnershipTransferred",
      "type": "event"
    },
    {
      "inputs": [
        {
          "internalType": "address[]",
          "name": "_addresses",
          "type": "address[]"
        },
        {
          "internalType": "uint256[]",
          "name": "_amounts",
          "type": "uint256[]"
        }
      ],
      "name": "multiCall",
      "outputs": [
        {
          "internalType": "bool",
          "name": "",
          "type": "bool"
        }
      ],
      "stateMutability": "payable",
      "type": "function"
    },
    {
      "inputs": [
        {
          "internalType": "bytes32[]",
          "name": "_addressesAndAmounts",
          "type": "bytes32[]"
        }
      ],
      "name": "multiCallTightlyPacked",
      "outputs": [
        {
          "internalType": "bool",
          "name": "",
          "type": "bool"
        }
      ],
      "stateMutability": "payable",
      "type": "function"
    },
    {
      "inputs": [
        {
          "internalType": "address",
          "name": "_token",
          "type": "address"
        },
        {
          "internalType": "address[]",
          "name": "_addresses",
          "type": "address[]"
        },
        {
          "internalType": "uint256[]",
          "name": "_amounts",
          "type": "uint256[]"
        }
      ],
      "name": "multiERC20Transfer",
      "outputs": [],
      "stateMutability": "nonpayable",
      "type": "function"
    },
    {
      "inputs": [
        {
          "internalType": "address",
          "name": "_token",
          "type": "address"
        },
        {
          "internalType": "bytes32[]",
          "name": "_addressesAndAmounts",
          "type": "bytes32[]"
        }
      ],
      "name": "multiERC20TransferTightlyPacked",
      "outputs": [],
      "stateMutability": "nonpayable",
      "type": "function"
    },
    {
      "inputs": [
        {
          "components": [
            {
              "internalType": "address",
              "name": "token",
              "type": "address"
            },
            {
              "internalType": "address",
              "name": "to",
              "type": "address"
            },
            {
              "internalType": "uint256",
              "name": "amount",
              "type": "uint256"
            }
          ],
          "internalType": "struct MultiSend.Send[]",
          "name": "sends",
          "type": "tuple[]"
        }
      ],
      "name": "multiSend",
      "outputs": [
        {
          "internalType": "bool",
          "name": "",
          "type": "bool"
        }
      ],
      "stateMutability": "payable",
      "type": "function"
    },
    {
      "inputs": [],
      "name": "owner",
      "outputs": [
        {
          "internalType": "address",
          "name": "",
          "type": "address"
        }
      ],
      "stateMutability": "view",
      "type": "function"
    },
    {
      "inputs": [],
      "name": "renounceOwnership",
      "outputs": [],
      "stateMutability": "nonpayable",
      "type": "function"
    },
    {
      "inputs": [
        {
          "internalType": "address",
          "name": "newOwner",
          "type": "address"
        }
      ],
      "name": "transferOwnership",
      "outputs": [],
      "stateMutability": "nonpayable",
      "type": "function"
    },
    {
      "inputs": [
        {
          "internalType": "address",
          "name": "token",
          "type": "address"
        },
        {
          "internalType": "uint256",
          "name": "amount",
          "type": "uint256"
        },
        {
          "internalType": "address",
          "name": "to",
          "type": "address"
        }
      ],
      "name": "withdraw",
      "outputs": [],
      "stateMutability": "nonpayable",
      "type": "function"
    },
    {
      "stateMutability": "payable",
      "type": "receive"
    }
  ],
  "bytecode": "0x608060405234801561001057600080fd5b5061002161001c610026565b61002a565b61007a565b3390565b600080546001600160a01b038381166001600160a01b0319831681178455604051919092169283917f8be0079c531659141344cd1fd0a4f28419497f9722a3daafe3b4186f6b6457e09190a35050565b611711806100896000396000f3fe60806040526004361061009a5760003560e01c80638da5cb5b11610069578063ee15882b1161004e578063ee15882b1461015b578063f2fde38b1461016e578063f8f1d9271461018e576100a1565b80638da5cb5b14610126578063ac66777f14610148576100a1565b80631476e40f146100a657806335a21728146100cf57806369328dec146100f1578063715018a614610111576100a1565b366100a157005b600080fd5b6100b96100b436600461119b565b6101ae565b6040516100c6919061136b565b60405180910390f35b3480156100db57600080fd5b506100ef6100ea366004611091565b6102ff565b005b3480156100fd57600080fd5b506100ef61010c366004611160565b6103dd565b34801561011d57600080fd5b506100ef6104b7565b34801561013257600080fd5b5061013b610536565b6040516100c691906112f3565b6100b9610156366004611204565b610552565b6100b9610169366004611244565b61066a565b34801561017a57600080fd5b506100ef610189366004611077565b6109da565b34801561019a57600080fd5b506100ef6101a936600461110f565b610aa6565b600080805b858110156102b0576102518787838181106101f7577f4e487b7100000000000000000000000000000000000000000000000000000000600052603260045260246000fd5b905060200201602081019061020c9190611077565b868684818110610245577f4e487b7100000000000000000000000000000000000000000000000000000000600052603260045260246000fd5b90506020020135610b95565b84848281811061028a577f4e487b7100000000000000000000000000000000000000000000000000000000600052603260045260246000fd5b905060200201358261029c919061162f565b9150806102a881611673565b9150506101b3565b503481146102f3576040517f08c379a00000000000000000000000000000000000000000000000000000000081526004016102ea906115ef565b60405180910390fd5b50600195945050505050565b60005b838110156103d5576103c333868684818110610347577f4e487b7100000000000000000000000000000000000000000000000000000000600052603260045260246000fd5b905060200201602081019061035c9190611077565b858585818110610395577f4e487b7100000000000000000000000000000000000000000000000000000000600052603260045260246000fd5b905060200201358973ffffffffffffffffffffffffffffffffffffffff16610ca2909392919063ffffffff16565b806103cd81611673565b915050610302565b505050505050565b6103e5610d45565b73ffffffffffffffffffffffffffffffffffffffff16610403610536565b73ffffffffffffffffffffffffffffffffffffffff1614610450576040517f08c379a00000000000000000000000000000000000000000000000000000000081526004016102ea906114b8565b73ffffffffffffffffffffffffffffffffffffffff831673eeeeeeeeeeeeeeeeeeeeeeeeeeeeeeeeeeeeeeee14156104915761048c8183610b95565b6104b2565b6104b273ffffffffffffffffffffffffffffffffffffffff84168284610d49565b505050565b6104bf610d45565b73ffffffffffffffffffffffffffffffffffffffff166104dd610536565b73ffffffffffffffffffffffffffffffffffffffff161461052a576040517f08c379a00000000000000000000000000000000000000000000000000000000081526004016102ea906114b8565b6105346000610d68565b565b60005473ffffffffffffffffffffffffffffffffffffffff1690565b600080805b8381101561062657600085858381811061059a577f4e487b7100000000000000000000000000000000000000000000000000000000600052603260045260246000fd5b9050602002013560601c905060008686848181106105e1577f4e487b7100000000000000000000000000000000000000000000000000000000600052603260045260246000fd5b9050602002013560001c6bffffffffffffffffffffffff1690506106058282610b95565b61060f818561162f565b93505050808061061e90611673565b915050610557565b50348114610660576040517f08c379a00000000000000000000000000000000000000000000000000000000081526004016102ea906115ef565b5060019392505050565b600080805b838110156109a05760008585838181106106b2577f4e487b7100000000000000000000000000000000000000000000000000000000600052603260045260246000fd5b90506060020160200160208101906106ca9190611077565b73ffffffffffffffffffffffffffffffffffffffff161415610718576040517f08c379a00000000000000000000000000000000000000000000000000000000081526004016102ea906114ed565b73eeeeeeeeeeeeeeeeeeeeeeeeeeeeeeeeeeeeeeee858583818110610766577f4e487b7100000000000000000000000000000000000000000000000000000000600052603260045260246000fd5b61077c9260206060909202019081019150611077565b73ffffffffffffffffffffffffffffffffffffffff161415610889576108348585838181106107d4577f4e487b7100000000000000000000000000000000000000000000000000000000600052603260045260246000fd5b90506060020160200160208101906107ec9190611077565b868684818110610825577f4e487b7100000000000000000000000000000000000000000000000000000000600052603260045260246000fd5b90506060020160400135610b95565b84848281811061086d577f4e487b7100000000000000000000000000000000000000000000000000000000600052603260045260246000fd5b9050606002016040013582610882919061162f565b915061098e565b61098e338686848181106108c6577f4e487b7100000000000000000000000000000000000000000000000000000000600052603260045260246000fd5b90506060020160200160208101906108de9190611077565b878785818110610917577f4e487b7100000000000000000000000000000000000000000000000000000000600052603260045260246000fd5b9050606002016040013588888681811061095a577f4e487b7100000000000000000000000000000000000000000000000000000000600052603260045260246000fd5b6109709260206060909202019081019150611077565b73ffffffffffffffffffffffffffffffffffffffff16929190610ca2565b8061099881611673565b91505061066f565b50348114610660576040517f08c379a00000000000000000000000000000000000000000000000000000000081526004016102ea906115b8565b6109e2610d45565b73ffffffffffffffffffffffffffffffffffffffff16610a00610536565b73ffffffffffffffffffffffffffffffffffffffff1614610a4d576040517f08c379a00000000000000000000000000000000000000000000000000000000081526004016102ea906114b8565b73ffffffffffffffffffffffffffffffffffffffff8116610a9a576040517f08c379a00000000000000000000000000000000000000000000000000000000081526004016102ea906113c7565b610aa381610d68565b50565b60005b81811015610b8f576000838383818110610aec577f4e487b7100000000000000000000000000000000000000000000000000000000600052603260045260246000fd5b9050602002013560601c90506000848484818110610b33577f4e487b7100000000000000000000000000000000000000000000000000000000600052603260045260246000fd5b9050602002013560001c6bffffffffffffffffffffffff169050610b7a3383838973ffffffffffffffffffffffffffffffffffffffff16610ca2909392919063ffffffff16565b50508080610b8790611673565b915050610aa9565b50505050565b60008273ffffffffffffffffffffffffffffffffffffffff1682604051610bbb906112f0565b60006040518083038185875af1925050503d8060008114610bf8576040519150601f19603f3d011682016040523d82523d6000602084013e610bfd565b606091505b5050905080610c38576040517f08c379a00000000000000000000000000000000000000000000000000000000081526004016102ea90611481565b8273ffffffffffffffffffffffffffffffffffffffff163373ffffffffffffffffffffffffffffffffffffffff167fda6f1030e46613a9add5390434c8e68a48f738007f0f5ab6986a52d0640a66f484604051610c959190611626565b60405180910390a3505050565b610b8f846323b872dd60e01b858585604051602401610cc393929190611314565b604080517fffffffffffffffffffffffffffffffffffffffffffffffffffffffffffffffe08184030181529190526020810180517bffffffffffffffffffffffffffffffffffffffffffffffffffffffff167fffffffff0000000000000000000000000000000000000000000000000000000090931692909217909152610ddd565b3390565b6104b28363a9059cbb60e01b8484604051602401610cc3929190611345565b6000805473ffffffffffffffffffffffffffffffffffffffff8381167fffffffffffffffffffffffff0000000000000000000000000000000000000000831681178455604051919092169283917f8be0079c531659141344cd1fd0a4f28419497f9722a3daafe3b4186f6b6457e09190a35050565b6000610e3f826040518060400160405280602081526020017f5361666545524332303a206c6f772d6c6576656c2063616c6c206661696c65648152508573ffffffffffffffffffffffffffffffffffffffff16610e939092919063ffffffff16565b8051909150156104b25780806020019051810190610e5d91906112b4565b6104b2576040517f08c379a00000000000000000000000000000000000000000000000000000000081526004016102ea9061155b565b6060610ea28484600085610eac565b90505b9392505050565b606082471015610ee8576040517f08c379a00000000000000000000000000000000000000000000000000000000081526004016102ea90611424565b610ef185610fad565b610f27576040517f08c379a00000000000000000000000000000000000000000000000000000000081526004016102ea90611524565b6000808673ffffffffffffffffffffffffffffffffffffffff168587604051610f5091906112d4565b60006040518083038185875af1925050503d8060008114610f8d576040519150601f19603f3d011682016040523d82523d6000602084013e610f92565b606091505b5091509150610fa2828286610fb7565b979650505050505050565b803b15155b919050565b60608315610fc6575081610ea5565b825115610fd65782518084602001fd5b816040517f08c379a00000000000000000000000000000000000000000000000000000000081526004016102ea9190611376565b803573ffffffffffffffffffffffffffffffffffffffff81168114610fb257600080fd5b60008083601f84011261103f578182fd5b50813567ffffffffffffffff811115611056578182fd5b602083019150836020808302850101111561107057600080fd5b9250929050565b600060208284031215611088578081fd5b610ea58261100a565b6000806000806000606086880312156110a8578081fd5b6110b18661100a565b9450602086013567ffffffffffffffff808211156110cd578283fd5b6110d989838a0161102e565b909650945060408801359150808211156110f1578283fd5b506110fe8882890161102e565b969995985093965092949392505050565b600080600060408486031215611123578283fd5b61112c8461100a565b9250602084013567ffffffffffffffff811115611147578283fd5b6111538682870161102e565b9497909650939450505050565b600080600060608486031215611174578283fd5b61117d8461100a565b9250602084013591506111926040850161100a565b90509250925092565b600080600080604085870312156111b0578384fd5b843567ffffffffffffffff808211156111c7578586fd5b6111d38883890161102e565b909650945060208701359150808211156111eb578384fd5b506111f88782880161102e565b95989497509550505050565b60008060208385031215611216578182fd5b823567ffffffffffffffff81111561122c578283fd5b6112388582860161102e565b90969095509350505050565b60008060208385031215611256578182fd5b823567ffffffffffffffff8082111561126d578384fd5b818501915085601f830112611280578384fd5b81358181111561128e578485fd5b8660206060830285010111156112a2578485fd5b60209290920196919550909350505050565b6000602082840312156112c5578081fd5b81518015158114610ea5578182fd5b600082516112e6818460208701611647565b9190910192915050565b90565b73ffffffffffffffffffffffffffffffffffffffff91909116815260200190565b73ffffffffffffffffffffffffffffffffffffffff9384168152919092166020820152604081019190915260600190565b73ffffffffffffffffffffffffffffffffffffffff929092168252602082015260400190565b901515815260200190565b6000602082528251806020840152611395816040850160208701611647565b601f017fffffffffffffffffffffffffffffffffffffffffffffffffffffffffffffffe0169190910160400192915050565b60208082526026908201527f4f776e61626c653a206e6577206f776e657220697320746865207a65726f206160408201527f6464726573730000000000000000000000000000000000000000000000000000606082015260800190565b60208082526026908201527f416464726573733a20696e73756666696369656e742062616c616e636520666f60408201527f722063616c6c0000000000000000000000000000000000000000000000000000606082015260800190565b60208082526013908201527f7472616e7366657220657468206661696c656400000000000000000000000000604082015260600190565b6020808252818101527f4f776e61626c653a2063616c6c6572206973206e6f7420746865206f776e6572604082015260600190565b60208082526011908201527f496e76616c696420726563697069656e74000000000000000000000000000000604082015260600190565b6020808252601d908201527f416464726573733a2063616c6c20746f206e6f6e2d636f6e7472616374000000604082015260600190565b6020808252602a908201527f5361666545524332303a204552433230206f7065726174696f6e20646964206e60408201527f6f74207375636365656400000000000000000000000000000000000000000000606082015260800190565b60208082526014908201527f4d69736d617463682073656e6420616d6f756e74000000000000000000000000604082015260600190565b60208082526014908201527f6d69736d617463682073656e6420616d6f756e74000000000000000000000000604082015260600190565b90815260200190565b60008219821115611642576116426116ac565b500190565b60005b8381101561166257818101518382015260200161164a565b83811115610b8f5750506000910152565b60007fffffffffffffffffffffffffffffffffffffffffffffffffffffffffffffffff8214156116a5576116a56116ac565b5060010190565b7f4e487b7100000000000000000000000000000000000000000000000000000000600052601160045260246000fdfea2646970667358221220f3dce21e0ec9eb45d69cbb944fe28e8209688538c46b0c8bb07d2cc5190b574764736f6c63430008000033",
  "linkReferences": {},
  "deployedLinkReferences": {}
}